:020000040800F2
:1000000048070020ED010008F5010008F70100088D
:10001000F9010008FB010008FD01000800000000D4
:10002000000000000000000000000000FF010008C8
:100030000102000800000000030200080502000899
:10004000070200080702000807020008070200086C
:10005000070200080702000807020008070200085C
:10006000070200080702000807020008AD020008A6
:10007000CD020008ED0200080D0300082D03000862
:100080004D0300086D03000807020008070200087E
:10009000070200080702000807020008070200081C
:1000A000070200080702000807020008070200080C
:1000B00007020008590D000807020008070200089F
:1000C00007020008070200080702000807020008EC
:1000D00007020008AD0D000807020008070200082B
:1000E00007020008070200080702000800000000DD
:1000F0000000000000000000000000000000000000
:1001000000000000000000000702000807020008CD
:10011000070200080702000807020008070200089B
:100120008D030008AD030008D10300080702000892
:10013000F50300080702000807020008070200088C
:10014000070200080702000807020008070200086B
:1001500000F002F800F03AF80AA090E8000C82449F
:100160008344AAF10107DA4501D100F02FF8AFF27C
:10017000090EBAE80F0013F0010F18BFFB1A43F085
:10018000010318477C2100009C210000103A24BF85
:1001900078C878C1FAD8520724BF30C830C144BFEC
:1001A00004680C607047000000230024002500262E
:1001B000103A28BF78C1FBD8520728BF30C148BFCA
:1001C0000B6070471FB51FBD10B510BD00F037F8AC
:1001D0001146FFF7F7FF00F03FFF00F055F803B4BA
:1001E000FFF7F2FF03BC00F059F800000948804710
:1001F00009480047FEE7FEE7FEE7FEE7FEE7FEE709
:10020000FEE7FEE7FEE7FEE704480549054A064B20
:1002100070470000ED0C0008510100084801002063
:10022000480700204803002048030020704770471B
:100230007047000000487047E8000020704775468E
:10024000FFF7F8FFAE4605006946534620F0070069
:10025000854618B020B5FFF7D7FFBDE820404FF026
:1002600000064FF000074FF000084FF0000B21F0A0
:100270000701AC46ACE8C009ACE8C009ACE8C0096D
:10028000ACE8C0098D46704710B50446AFF3008056
:100290002046BDE81040FFF7A2BF0000014918202A
:1002A000ABBEFEE7260002007047000010B505480F
:1002B000006800F00F04034844602046FFF7F4FF95
:1002C00010BD0000000002407047000010B5054856
:1002D0000068C0F303142001024948602046FFF77C
:1002E000F3FF10BD000002407047000010B5054844
:1002F0000068C0F303242002024948602046FFF74B
:10030000F3FF10BD000002407047000010B5054823
:100310000068C0F303342003024948602046FFF719
:10032000F3FF10BD000002407047000010B5054803
:100330000068C0F303442004024948602046FFF7E8
:10034000F3FF10BD000002407047000010B50548E3
:100350000068C0F303542005024948602046FFF7B7
:10036000F3FF10BD000002407047000010B50548C3
:100370000068C0F303642006024948602046FFF786
:10038000F3FF10BD000002407047000010B50548A3
:10039000006800F00F040348001D04602046FFF7CA
:1003A000F3FF10BD000402407047000010B506487E
:1003B0000068C0F3031420010349091D08602046AA
:1003C000FFF7F2FF10BD000000040240704700007C
:1003D00010B506480068C0F3032420020349091D34
:1003E00008602046FFF7F2FF10BD00000004024045
:1003F0007047000010B506480068C0F303442004AD
:100400000349091D08602046FFF7F2FF10BD0000F8
:100410000004024001461D48814204D11C48806905
:10042000C0F3800070471B48814204D1184880699E
:10043000C0F3C000F6E71848814204D1144880692F
:10044000C0F30010EEE71548814204D110488069DE
:10045000C0F34010E6E71248814204D10C4880699D
:10046000C0F38010DEE70F48814204D1084880695C
:10047000C0F3C010D6E70C48814204D1044880691B
:10048000C0F30020CEE70020CCE7000000080140C8
:1004900000100240000C0140001001400014014017
:1004A00000180140001C0140002001402DE9F041EE
:1004B000024600250026002000230024002791F892
:1004C00003C00CF00F0591F803C00CF0100CBCF148
:1004D000000F03D091F802C04CEA050591F800C066
:1004E000BCF1000F31D0146800202BE04FF0010C5C
:1004F0000CFA00F3B1F800C00CEA03069E4220D1CA
:1005000083004FF00F0C0CFA03F7BC4305FA03FC11
:100510004CEA040491F803C0BCF1280F06D14FF057
:10052000010C0CFA00FCC2F814C00AE091F803C0F8
:10053000BCF1480F05D14FF0010C0CFA00FCC2F8D9
:1005400010C0401C0828D1D31460B1F800C0BCF121
:10055000FF0F34DD546800202EE000F1080C4FF04E
:10056000010808FA0CF3B1F800C00CEA03069E4239
:1005700021D183004FF00F0C0CFA03F7BC4305FAAE
:1005800003FC4CEA040491F803C0BCF1280F05D128
:1005900000F1080C08FA0CF8C2F8148091F803C0B6
:1005A000BCF1480F07D100F1080C4FF0010808FA20
:1005B0000CF8C2F81080401C0828CED35460BDE867
:1005C000F0812DE9F04105460C46174698460F2C60
:1005D00002D90020BDE8F0812846FFF71BFF18B9BB
:1005E0000121284600F02AF8B8F1000F10D1022F9F
:1005F00005D1E8680121A1408843E86008E0032FA5
:1006000006D127F00107E8680121A1400843E8600E
:10061000082C01D22E4601E0083C2E1D3068A200B5
:100620000F2191408843306048EA8700A10088404C
:100630003168084330600120CCE70000002945D034
:10064000454A904206D1454A926942F00402434B22
:100650009A6180E0424A904206D1404A926942F053
:1006600008023E4B9A6176E03E4A904206D13B4AF0
:10067000926942F01002394B9A616CE03A4A90421A
:1006800006D1364A926942F02002344B9A6162E008
:10069000364A904206D1314A926942F040022F4BCD
:1006A0009A6158E0324A904206D12C4A926942F04F
:1006B00080022A4B9A614EE02E4A90424BD1274A43
:1006C000926942F48072254B9A6144E0224A90423A
:1006D00006D1224A926922F00402204B9A613AE044
:1006E0001F4A904206D11D4A926922F008021B4B14
:1006F0009A6130E01B4A904206D1184A926922F072
:100700001002164B9A6126E0174A904206D1134A0E
:10071000926922F02002114B9A611CE0134A904228
:1007200006D10E4A926922F040020C4B9A6112E007
:100730000F4A904206D1094A926922F08002074B83
:100740009A6108E00B4A904205D1044A926922F46A
:100750008072024B9A61704700080140001002400D
:10076000000C01400010014000140140001801403D
:10077000001C0140002001400246002093680B400D
:100780000BB1012000E0002070474161704701611A
:100790007047000010B510210B48FFF7F6FF00F07E
:1007A000BFF820210848FFF7F0FF0A2000F063FBA4
:1007B00010210548FFF7EBFF0A2000F05CFB102139
:1007C0000148FFF7E2FF10BD0008014008B5012114
:1007D000042000F0EBF93020ADF8000003208DF884
:1007E000020010208DF8030069460648FFF75EFE00
:1007F00010210448FFF7CBFF20210248FFF7C7FF75
:1008000008BD00000008014010B510210B48FFF79B
:10081000BCFF00F085F820210848FFF7B8FF0A2048
:1008200000F029FB10210548FFF7B1FF0A2000F076
:1008300022FB10210148FFF7A8FF10BD000801406E
:1008400070B505460026002400F05CF800BF18E0F3
:1008500010211148FFF799FF0A2000F00CFB10212E
:100860000D48FFF794FF6006040E20210A48FFF7A9
:1008700083FF08B1601CC4B20A2000F0FCFA701CAF
:10088000C6B2082EE4DB15B9FFF7BEFF01E0FFF7A3
:1008900081FF204670BD0000000801402DE9F047AF
:1008A00080460F4614461D464FF00009002600F012
:1008B00079F8404600F046F800F0ACF8384600F011
:1008C00041F800F0A7F800F06DF808F10101C8B296
:1008D00000F038F800F09EF800BF05E00120FFF7B7
:1008E000AFFFA055701CC6B2681EB042F6DC0020F7
:1008F000FFF7A6FF611901F8010C00F06FF8BDE8E1
:10090000F087000008B52020ADF8000048208DF8E1
:10091000030069460148FFF7C9FD08BD0008014012
:1009200008B52020ADF8000003208DF8020010204B
:100930008DF8030069460248FFF7B8FD08BD0000C6
:100940000008014070B504460025FFF7E9FF1021BB
:100950001348FFF71AFF00BF1EE004F080000028D4
:1009600004DD20210E48FFF712FF03E020210C4890
:10097000FFF70BFF6006040E10210948FFF707FF81
:100980000A2000F078FA10210548FFF7FEFE0A2041
:1009900000F071FA681CC5B2082DDEDB70BD0000E6
:1009A0000008014010B5FFF7BBFF20210A48FFF700
:1009B000EEFE10210848FFF7EAFE0A2000F05BFA7D
:1009C00020210548FFF7E1FE0A2000F054FA10212B
:1009D0000148FFF7DAFE10BD0008014010B5FFF72F
:1009E0009FFF10210A48FFF7D0FE20210848FFF79B
:1009F000CCFE10210648FFF7CAFE0A2000F03BFAA1
:100A000020210348FFF7C3FE0A2000F034FA10BD8E
:100A10000008014010B5002410210E48FFF7B7FE72
:100A20000A2000F028FAFFF76DFF07E0601CC4B24F
:100A3000FA2C03DDFFF7D2FF012010BD202105486D
:100A4000FFF79AFE0028F1D110210248FFF79DFE22
:100A50000020F2E7000801402DE9F04180460D46F4
:100A600016461F460024FFF79DFF4046FFF76AFF2A
:100A7000FFF7D0FF2846FFF765FFFFF7CBFF00BF6A
:100A800006E0305DFFF75EFFFFF7C4FF601CC4B2F5
:100A9000BC42F6DBFFF7A2FF322000F0E2F9BDE82E
:100AA000F08108B500214FF0006000F057F84FF4D6
:100AB000A06000F049F825208DF8000003208DF893
:100AC000010000208DF8020001208DF80300684627
:100AD00000F002F808BD000070B5002100230F22CD
:100AE000C47804B3154C246804F4E064C4F5E064ED
:100AF000210AC1F10403CA40447804FA03F184785E
:100B00001440214309010E4C0678A155047804F0E5
:100B10001F050124AC4005786D11AD0005F1E025FD
:100B2000C5F8004109E0047804F01F050124AC4039
:100B3000044D0678761145F8264070BD0CED00E0B6
:100B400000E400E080E100E002490143024A116054
:100B5000704700000000FA050CED00E0024A0A4070
:100B60000243024B1A60704780FFFF1F08ED00E050
:100B700070B504460D46164633462A462146802067
:100B8000FFF78CFE70BD13B50446012301AA214670
:100B90008020FFF761FF1CBD13B50446022301AAA4
:100BA00021468020FFF758FF1CBD000029B1064AEE
:100BB00092690243044B9A6104E0034A92698243BA
:100BC000014B9A61704700000010024010B500F020
:100BD00001F810BD0CB50020019000903F4800685E
:100BE00040F480303D49086000BF3C48006800F494
:100BF000003000900198401C0190009818B90198AD
:100C0000B0F5A06FF1D13548006800F4003010B1A4
:100C10000120009001E000200090009801285CD1A4
:100C20002F48006840F010002D4908600846006811
:100C300020F0030008600846006840F002000860E9
:100C4000264840682549486008464068486008468C
:100C5000406840F4806048600846C06A2149084006
:100C60001E49C8620846C06A1F4908431B49C8623A
:100C70000846006840F08060086000BF17480068C0
:100C800000F000600028F9D01448406820F47C107F
:100C9000124948600846406840F4E8104860084639
:100CA000006840F08070086000BF0C48006800F0E9
:100CB00000700028F9D00948406820F00300074977
:100CC00048600846406840F00200486000BF0348A2
:100CD000406800F00C000828F9D10CBD001002405B
:100CE0000020024000F0FEFF4406010010B5164847
:100CF000006840F001001449086008464068134944
:100D000008401149486008460068114908400E49EA
:100D100008600846006820F48020086008464068A3
:100D200020F4FE0048600846006820F0A0500860EB
:100D30004FF47F0088600020C862FFF747FF4FF044
:100D400000600449086010BD001002400000FFF080
:100D5000FFFFF6FE08ED00E010B500240121084871
:100D600000F013F858B10121054800F00BF800BF5E
:100D700003E0204600F046FB641C062CF9DB10BDA6
:100D800000040040CA430282704730B5024600208A
:100D900000230024158A05EA0103958905EA010468
:100DA00013B10CB1012000E0002030BD10B540F2BD
:100DB00025510E4800F02BF858B10C48001D008852
:100DC000C4B2204600F064F940F22551074800F013
:100DD0000FF840F22771054800F019F820B140F2F1
:100DE0002771024800F004F810BD000000380140EF
:100DF00010B50022002340F66A14A14200D100BFC2
:100E00000A1201249440A3B2DC43048010BD70B5E3
:100E10000246002400230025002040F66A16B14255
:100E200000D100BFC1F3421501F01F03012606FAED
:100E300003F3012D02D19689334006E0022D02D141
:100E4000168A334001E0968A33400C12012606FAD6
:100E500004F41688344013B10CB1012000E00020E6
:100E600070BD10B503464FF47A7003FB00F42046C2
:100E700000F001F810BD002100BF48E000BF00BF36
:100E800000BF00BF00BF00BF00BF00BF00BF00BF6A
:100E900000BF00BF00BF00BF00BF00BF00BF00BF5A
:100EA00000BF00BF00BF00BF00BF00BF00BF00BF4A
:100EB00000BF00BF00BF00BF00BF00BF00BF00BF3A
:100EC00000BF00BF00BF00BF00BF00BF00BF00BF2A
:100ED00000BF00BF00BF00BF00BF00BF00BF00BF1A
:100EE00000BF00BF00BF00BF00BF00BF00BF00BF0A
:100EF00000BF00BF00BF00BF00BF00BF00BF00BFFA
:100F000000BF00BF00BF00BF00BF00BF491C81423F
:100F1000B4D370472DE9F041C1F30A52A2F2FF3673
:100F20002F4A304B0D460446142E2FDA002E12DACB
:100F300000F01EFB0022134600F0A4FE4CD2002D50
:100F4000A4BF0024254647DA25F00040204318BFFF
:100F5000254D41D018E0DFF894C02CFA06F705EAD9
:100F6000070C5CEA040C08BFBDE8F08100F000FB50
:100F70000022134600F086FE2ED2002D03DA4FF435
:100F80008010F0400544BD43002425E0332EC8BF47
:100F9000BDE8F081A6F1140C4FF0FF3727FA0CF7EB
:100FA0003C4208BFBDE8F08100F0A2FE00221346DB
:100FB00000F068FE10D2002D0DDA142E08BF6D1C53
:100FC00009D0C6F13400012101FA00F02044A0420A
:100FD00038BF6D1C0446BC4329462046BDE8F0815D
:100FE0009C7500883CE4377E0000F0BFFFFF0F00D7
:100FF0000146064A505C064A9268C24002F001026D
:101000000AB1002070470120FCE70000000000202A
:101010000010014010B501210D48FFF70FFB02231E
:10102000032206210B48FFF7CCFA022303220721F3
:101030000848FFF7C6FA0223032208210548FFF7F4
:10104000C0FA0223032209210248FFF7BAFA10BDB1
:10105000001001400014014000BFFFF7DBFF00F06B
:1010600027F9FFF71EFD12E00220FFF7C1FF28B1AC
:101070004FF4FA71002000F08FF908E00120FFF72B
:10108000B7FF20B140F2DC51002000F085F9EBE71A
:1010900001B5012269460248006800F003F808BD66
:1010A000C40000202DE9F84306460F4690464FF055
:1010B0000009002000900025344600BF4EE0785D16
:1010C00000902948007830B101280FD0022819D0AB
:1010D000042841D11FE09DF80000FF2803D1012022
:1010E0002149087001E04FF0FF3935E09DF800001C
:1010F000552803D102201C49087002E000201A493B
:10110000087029E00420184908709DF800008860E4
:101110000020C86020E001226946A06800F026F89F
:101120001148C068401C1049C86008468068C968FA
:10113000884210D1206928B10B4B197BA36818682D
:1011400022699047002008498860C8600870A1683B
:101150000881A168C86000BF00BF6D1C4545AEDBBB
:101160004846BDE8F8830000D8000020F0B50346EB
:1011700000240D4613B94FF48170F0BD00240FE038
:101180005868401EDE68864202DB40F20910F4E730
:1011900015F8016BDF68781CD8601868C655641CA8
:1011A0009442EDDB0020E8E730B5144C04EB40142A
:1011B0002168124C04EB4014002362681BB1012427
:1011C00094400C6104E002F110040125A5400D617A
:1011D00000BF0A4C04EB4014A168084C04EB401417
:1011E0000123E2681BB1012494400C6104E002F188
:1011F00010040125A5400D6100BF30BD0400002092
:1012000030B5144C04EB40142168124C04EB40142C
:10121000012362681BB1012494400C6104E002F1D7
:1012200010040125A5400D6100BF0A4C04EB4014D9
:10123000A168084C04EB40140023E2681BB10124B0
:1012400094400C6104E002F110040125A5400D61F9
:1012500000BF30BD0400002030B5144C04EB401436
:101260002168124C04EB4014002362681BB1012476
:1012700094400C6104E002F110040125A5400D61C9
:1012800000BF0A4C04EB4014A168084C04EB401466
:101290000023E2681BB1012494400C6104E002F1D8
:1012A00010040125A5400D6100BF30BD04000020E1
:1012B00010B5FFF78BFA024800F004F810BD0000EB
:1012C000000048422DE9FE4F8246504600F006FEDF
:1012D00006462D4A2D4B00F0D7FB044600F016F9C8
:1012E00082462B4800904FF08B41009800F084FE1E
:1012F00000905146009800F07FFE00904FF07E5124
:10130000009800F087FF0090009800F0E7FD064687
:101310000022204B00F02CF98046FFF7FBFD04462D
:1013200000F032FBC0B20290012201A90020FFF7B9
:101330001FFC9DF8040000F07F0040F0100B5946A0
:101340000020FFF720FC9DF80810FE20FFF71BFC93
:1013500000200290012202A9FFF70AFC9DF8040078
:1013600000F0EF0001909DF804100020FFF70BFC47
:101370000520FFF776FD9DF8040040F0A101002054
:10138000FFF701FCBDE8FE8F48E17A14AE47ED3F60
:1013900020BCBE4B0000E03F2DE9FF5F82468B463C
:1013A00000200390584600F01CFB06460022114B1B
:1013B00000F092F90022104BCDE9000100F064FB2F
:1013C00004460E4A0E4B00F05FFB804600F0DCFA4C
:1013D00080B202904FEA8A01891DC8B20399FFF7D3
:1013E000DBFB4FEA8A010831C8B20299FFF7D4FB50
:1013F000BDE8FF9F0088D3400000B0407E2AB86956
:101400007D1BF03F10B504463F4800EB44100069D7
:1014100010F1050F12DB3C4800EB44100069052871
:101420000CDC2046FFF718FF374800EB44108069BA
:10143000401C354901EB4411886110BD324800EB76
:1014400044100069002829DB2F4800EB4410806914
:10145000642190FBF1F201FB12002B4901EB4411D6
:10146000096988420DDA2046FFF7CAFE01202649A5
:1014700001EB441108750020234901EB4411487524
:1014800036E02046FFF7E8FE00201F4901EB44113B
:1014900008751D4901EB4411487529E01A4800EB15
:1014A00044108069642190FBF1F201FB120016499F
:1014B00001EB44110969494288420DDA2046FFF7E1
:1014C00073FE0020104901EB4411087501200E49FC
:1014D00001EB441148750BE02046FFF7BDFE0020EC
:1014E000094901EB44110875074901EB441148759E
:1014F000054800EB44108069401C034901EB44118E
:10150000886100BF99E700000400002021F000423C
:10151000A2F16052B2F5801F01F0004328BFD2F162
:101520007F6C0BD95FEA001C43EAC20242EB5070A9
:1015300018BF704728BF20F001007047B2F5801F28
:10154000BCBF184670474FEA410C1CF5001F02D281
:10155000084600F059BE70B500F040FB000000895D
:10156000FFF7F6BF4FF00040A0F580007047000085
:1015700010B591EA030F48BF83F0004300F1CC831C
:10158000841A71EB030C05D2121943EB0C03001BF8
:1015900061EB0C01DFF824E14FEA1154A4EB135C7A
:1015A0001EEA430F18BF9EEA445F73D023EA0E037E
:1015B000DCF1200E21EA045143F4801332D322FAE5
:1015C0000CFE10EB0E0023FA0CFE41EB0E01CCF1E9
:1015D000200E03FA0EFE10EB0E0051F10001B1F5E2
:1015E000801FCCF1200E32D201EB045112FA0EF220
:1015F000BDE8104058BF7047401C38BF5FEA420248
:1016000018BF7047002814BF20F0010041F100010D
:101610004FEA410313F5001F38BF7047A1F1C041E5
:1016200000F02ABB012A43EB0302ACF1200CDCF1F1
:101630001F0E32BF4FF0000E23FA0CF310EB030025
:1016400041EB0451B4EB115FD0D0A1EB045101F593
:10165000801149085FEA300001EB04510ED350F1CC
:10166000000038BF12FA0EFE08D1BDE81040C9E7ED
:10167000401C38BF5FEA4202CAD1C3E7BDE8104050
:101680004FEA410313F5001F38BF7047A1F1C04175
:1016900000F0F2BA9EEA445F08D011EA5E0FBDE89E
:1016A000104004BF01F0004100207047BDE8104029
:1016B00070B500F093FA00BF64FBBE3E0000E0FF8F
:1016C000491058BFC1F140415B1058BFC3F14043BE
:1016D0008B42EFF3008070472DE9C04130B4DFF852
:1016E000A0C23CEA111418BF3CEA131400F0EC80CD
:1016F00081EA03051CEA111444EAD57418BF1CEAF8
:10170000131500F0C780A4EB05044FF0004545EA2F
:10171000C12145EAC32341EA505143EA525304F13F
:101720007F74994204F500344FEAC0204FEAC22288
:1017300008BF904200F09C804FEA13650FF24016FC
:10174000765D4FEA134506FB05F7C7F1807706FB88
:1017500007F74FEAD737A7FB03687642C8F580380A
:10176000A7FB06CE38BFA8F1010807FB08E64FF03B
:10177000000EA6FB028CE6FB03CEDCF1000CCEF1E2
:10178000004E38BFAEF1010EA6FB0C584FF000071B
:101790004FF00005E6FB0E87A1FB08C6A0FB07CEB5
:1017A00016EB0E0645F10005E1FB076515F1E04E6D
:1017B0007EBFA4F580345FEA46066D4116F18007CE
:1017C00045F100054FEA17274FEA066647EA056725
:1017D000A6F1DE46B6F1805F4FEA15251FD93846DF
:1017E00024F0010C05EBC471BCF1FE6F01EB0C1190
:1017F00002D8F0BCBDE8008124425CBF01F5801E28
:101800009EEAC47F02D4F0BCBDE80081244238D4F3
:10181000F0BCA1F1C041BDE8004100F02DBA4FEA93
:10182000D22242EA43524FEAD323A7FB02864FEA71
:10183000D02040EA415007FB03661EEA0E0F4FEA34
:10184000D12105FB026658BFA6EB0056B6EB005649
:101850004FEA520E4EEAC37E18EB0E0E56EB530EB5
:10186000BDD518EB02085E417F1C55F10005B6E7B7
:101870004FF480154FF000074FF000064FF00008BE
:10188000ADE7F0BC4FF0000001F1C04101F00041B4
:10189000BDE8008111EA0C1F0CEA131500D00CE022
:1018A00013EA0C1F00F025804FF00000F0BC81EA25
:1018B000030101F00041BDE80081F0BCBDE800413A
:1018C00081EA030100F0D8B9F0BCBDE8004170B571
:1018D00000F084F9097EFC3E00F007B881EA0301BC
:1018E0004FF0000001F00041704781EA030100F071
:1018F000C3B9F0BCBDE800414FF00000214970477A
:10190000FFFDFBF9F7F5F4F2F0EEEDEBE9E8E6E4C4
:10191000E3E1E0DEDDDBDAD8D7D5D4D3D1D0CFCD4B
:10192000CCCBCAC8C7C6C5C4C2C1C0BFBEBDBCBB84
:10193000BAB9B8B7B6B5B4B3B2B1B0AFAEADACAB7F
:10194000AAA9A8A8A7A6A5A4A3A3A2A1A09F9F9E59
:101950009D9C9C9B9A99999897979695959493930B
:10196000929191908F8F8E8E8D8C8C8B8B8A8989A2
:101970008888878786858584848383828281818025
:101980000000FF070000F87F4FEA1153A3F58063C2
:10199000D3F11E03A8BFD3F1200C08DB4FF00042A7
:1019A00042EAC12252EA505232FA03F07047094229
:1019B0000BD4102BC4BF0020704703F5787CBCF11A
:1019C000FF3F05D04FF0FF3070474FF000007047E9
:1019D00070B500F003F900BF4992248000207047E1
:1019E000F0E710F0004248BF4042B0FA80F310FA2E
:1019F00003F10AD0C3F11D0303F580634FEA4150A0
:101A000002EB035202EBD12170474FF00000704708
:101A100051EA030C17D41CF5801F58BFBCF5801F7A
:101A200000F10680994218BF704708BF9042704786
:101A300007D711F5801F58BF13F5801F19D499429D
:101A40007047894270471CF5801F08D5BCF5801F80
:101A5000F7D58B4218BF704708BF824270474FF4DA
:101A6000001C1CEB410F38BF1CEB430F01D28B4213
:101A7000704770B500F0B2F8922449004FF0005161
:101A80004FF08053FFF71CBEDFF848C170B51CEA69
:101A9000111E1EBF1CEA13159EEA0C0F95EA0C0FCF
:101AA00000F06F8081EA030423EA4C134EEAD47EEF
:101AB00021EA4C1141F4801143F48013AE44A1FBA0
:101AC000024CA0FB0365AEF17F7E361955EB0C0589
:101AD000A1FB034C4CF10003A0FB021C16EB0C060F
:101AE000654153F10003094218BF46F0010613F4A3
:101AF000007F0BD14FEA03314FEA0530340341EA4E
:101B0000155140EA16506FF003020AE04FEAC32174
:101B10004FEAC520F40241EA555140EA56506FF0B1
:101B2000020202EB2E4201EB025585EACE710AD089
:101B30005FEA440C18BF24F0004450F1000041F16A
:101B4000000120EAD47040F2FE7C624500D270BDF4
:101B5000A84214BF4FF080444FF04044002E08BF0D
:101B60000024BEF1806FA8BFA1F1C041BDE8704064
:101B700080F282804FF0000001F1C04101F000418D
:101B800070479EEA0C0F0CEA131518BF95EA0C0F6C
:101B900006D04FF0000081EA030E0EF0004170BD48
:101BA00000F01CF88900013E00F007B800F009B809
:101BB0004FEA430C5FEA5C5C08D081EA030100F065
:101BC0005BB84FEA410C5FEA5C5CF6D14FF0000075
:101BD000014970470000FF070000F87F0EF1020E78
:101BE0002EF0030E5EF8046B364205D4012A43EB57
:101BF000030515F5001F12D8012841EB010C1CF557
:101C0000001F0CD80ED14FEAD17C15F5001F0CEB4C
:101C10004C0C0CF1020C08BF4CEBD37C04E04FF0F1
:101C2000080C01E04FEAD37C0CEB4C0526FA05F6D4
:101C300006F00706B6F1040C06D20EEB860CBDE8E2
:101C400070404CF0010C6047DFE80CF0090B020219
:101C50004FF000414FF00000A1F5002170BD194682
:101C60001046012851EB010418BFD4F5001484BFBD
:101C7000002001F0004170BD0808A0F500114FEAF6
:101C80003101704753EA010C17D41CF5801F58BF6F
:101C9000BCF5801F00F106808B4218BF704708BF5B
:101CA0008242704707D713F5801F58BF11F5801F78
:101CB00019D48B4270479B4270471CF5801F08D592
:101CC000BCF5801FF7D5994218BF704708BF9042F6
:101CD00070474FF4001C1CEB430F38BF1CEB410F47
:101CE00001D2994270470FB40CBC03BCFFF7C1BED0
:101CF00091EA030F10B581F000413FF541AC83F04C
:101D0000004300F009B8000010B591EA030F48BF86
:101D100083F000433FF534AC841A71EB030C07D217
:101D200012198CF0004C43EB0C03001B61EB0C010F
:101D3000DFF8A4E14FEA1154A4EB135C1EEA430F51
:101D400018BF9EEA445F00F0B08023EA6E0352425F
:101D500021EA0451C3EB6E0338BF5B1EDCF1200E99
:101D600025D322FA0CFE10EB0E0043FA0CFE41EBD9
:101D70000E01CCF1200E03FA0EFE10EB0E0051F115
:101D80000001CCF1200E29D412FA0EF201EB04511D
:101D9000BDE8104058BF7047401C1CBFB2F1004F57
:101DA000704700280CBF491C20F00100704712EB5F
:101DB000020E43EB030218BF4FF0010E4EEA42023F
:101DC000ACF1200CDCF11E0E54D943FA0CFE10EBE2
:101DD0000E0051F1FF31CCF11E0ED5D50EF1010EE2
:101DE00012FA0EFE404141EB010101EB445C5FEA57
:101DF0005C5C10D910EBDE7001EB045138BFBEF112
:101E0000004FBDE8104018BF704700280CBF491CA8
:101E100020F00100704730D24FEAD42C11F50011A8
:101E200024F400641BD0B1FA81F20B3AA41AA41E68
:101E3000D2F12003914030FA03F31943904001EBB3
:101E4000CC71002C01EB0451BDE81040A8BF7047D5
:101E500001F1C0414FF0000001F000417047B0FABD
:101E600080F310FA03F100D110BDE41A173C4805C5
:101E7000C90AE4E701EB045110BD491001EB04511C
:101E8000BDE810404FEA300002E04FF0000170471B
:101E90004A0008BF0042F8D0B2F5001F28BF7047C3
:101EA00001F000414FF0000070479EEA445F07D008
:101EB00011EA5E0FBDE8104004BF0021002070470A
:101EC000BDE8104070B5FFF789FE00BF40DFF63E69
:101ED00083F00041104670470000E0FF43004FEAE6
:101EE000D30C4FEA3C0C43401FBF40070CF160513C
:101EF00013F0FE4F70471CF0006F03D100200CF070
:101F0000004170470CF0004343EA507010B540EABE
:101F1000CC0000F033F900BF000000924FEA00014E
:101F2000FFF7AABE4FF000414FF00000A1F50021DD
:101F30007047000090EA010F48BF81F0004100F1B6
:101F40007081421A3CBF801A89184FEAD0524FF074
:101F50007F4C1CEA410FA2EBD15318BF9CEA026FE1
:101F600000F03B804FF0004C4CEA00204CEA01218D
:101F700021FA03FC10EB0C0C1ED202F1FF325FEAD7
:101F80001C2040EBC25038BF70471CF07F0F4FEA57
:101F9000400C18BFBCF17F4F38BF7047C3F120031E
:101FA000994008BF20F00100BCF17F4F38BF704757
:101FB000A0F1C04000F028B94FEA3C00000A40EB15
:101FC000C25028BF1CF0FF0F4FEA400CE6D018BFEC
:101FD000BCF17F4F38BF7047EAE79CEA026F05D03B
:101FE00010EA5C0F08BF00F00040704710B500F029
:101FF000C5F800BF64FBBE3E4FF47F0C1CEAD01254
:102000001EBF1CEAD11392EA0C0F93EA0C0F00F0EA
:10201000858090EA010F48BF42F4807240F4000CC2
:1020200041F400002CF07F4120F07F4000B5814258
:10203000A2EB03020FF2081CACEB504EC0F1000003
:102040009EF800E04FEA4E0E00FB0EFC38BF490040
:102050004FEA2C1C02F5FA020CFB0EF34FEACE1EDF
:102060004FEA112C4FEAC1210EEB635E42EB224294
:102070000EFB0CFC4FEA1C5300FB03114FEA112C22
:102080004FEA01310EFB0CFC4FEADC4C00FB0C115B
:10209000C14228BF09184CEB03335DF804EB10EB89
:1020A000410143EBC250B2F57C0F38BF704729D5D0
:1020B00012F0F00F1CBF00F1C04000F0004070476C
:1020C000008182838485868788898B8C8D8E8F9111
:1020D0009293959697999A9C9D9FA0A2A3A5A7A835
:1020E000AAACAEB0B2B3B5B7B9BCBEC0C2C5C7C961
:1020F000CCCED1D4D7D9DCDFE2E6E9ECF0F3F7FAC5
:10210000FE0000004FEA400C0CF1807CBCF17E4FD9
:1021100028BF7047B0F1C04000F076B890EA010FD8
:102120000CEAD11348BF42F48072624538BF634560
:1021300007D213F47F0F16D080EA010000F00040B0
:10214000704710B500F01AF8097EFC3E00F005B8A3
:1021500080EA010000F00040704780EA010000F0D2
:10216000004000F051B812F47F0F04BF02487047DE
:1021700080EA010000F048B80000C07F0EF1020EB6
:102180002EF0030E5EF8044B244204D44FEA4102C1
:10219000B2F17F4F11D84FEA4003B3F17F4F0CD813
:1021A0000ED14FEAD07CB2F17F4F0CEB4C0C0CF10E
:1021B000020C08BF4CEBD17C04E04FF0080C01E0AE
:1021C0004FEAD17C0CEB4C0324FA03F404F007042F
:1021D000B4F1040C06D20EEB840CBDE810404CF0B8
:1021E000010C6047DFE80CF0070802024FF00040E6
:1021F000A0F5800010BD0846420018BFD2F18072E1
:1022000088BF00F0004010BDFF2141EAD050C0055A
:102210007047000090EA010F48BF81F000413FF590
:1022200090AE421A04D882F00042A0EB02001144A2
:102230004FEAD0524FF07F4C1CEA410FA2EBD15332
:1022400018BF9CEA026F4AD04FF0004C4CEA0020C5
:102250004CEA012121FA03FCB0EB0C0C0FD412F074
:10226000FE0F36D05FEA4C001DD5001240EBC25085
:1022700038BF70471CF03F0F18BF70470BE0A2F14A
:1022800001025FEA1C2040EBC25038BF70471CF0CF
:102290007F0F18BF7047C3F12003994014BF401E41
:1022A00020F00100704780084FEA122308BF7047F2
:1022B000B0FA80FCA2EB0C02CCF1280C60FA0CF016
:1022C00093EA122F04BF00EBC25070474FEAC3706D
:1022D0007047130A5FEADC1008BF7047F6E79CEA14
:1022E000026F04D010EA5C0F08BF0020704710B5E1
:1022F000FFF744FF40DFF63E81F0004070470000EA
:102300002023000800000020C80000008C01000805
:10231000E8230008C800002080060000A80100088B
:1023200006070809000801400400000000080140F9
:102330000500000000000000000000000000000098
:1023400000000000000801400600000000080140F5
:102350000700000000000000000000000000000076
:1023600000000000001001400400000000100140C7
:102370000500000000000000000000000000000058
:1023800000000000000C014000000000000C0140B3
:10239000010000000000000000000000000000003C
:1023A00000000000001401400E0000000014014075
:1023B0000F0000000000000000000000000000000E
:1023C0000000000000180140080000000018014053
:1023D00009000000000000000000000000000000F4
:0823E0000000000000000000F5
:04000005080001519D
:00000001FF
