:020000040800F2
:1000000060070020F5010008FD010008FF0100085D
:1000100001020008030200080502000800000000B9
:1000200000000000000000000000000007020008BF
:1000300009020008000000000B0200080D02000881
:100040000F0200080F0200080F0200080F0200084C
:100050000F0200080F0200080F0200080F0200083C
:100060000F0200080F0200080F02000861060008D6
:1000700081060008A1060008C1060008E106000884
:1000800001070008210700080F0200080F020008FE
:100090000F0200080F0200080F0200080F020008FC
:1000A0000F0200080F0200080F0200080F020008EC
:1000B0000F020008D11200080F0200080F0200080A
:1000C0000F0200080F0200080F0200080F020008CC
:1000D0000F020008251300080F0200080F02000895
:1000E0000F0200080F0200080F02000800000000C5
:1000F0000000000000000000000000000000000000
:1001000000000000000000000F0200080F020008BD
:100110000F0200080F0200080F0200080F0200087B
:100120004107000861070008850700080F02000862
:10013000A90700080F0200080F0200080F020008BC
:100140000F0200080F0200080F0200080F0200084B
:1001500000F002F800F03EF80AA090E8000C82449B
:100160008344AAF10107DA4501D100F033F8AFF278
:10017000090EBAE80F0013F0010F18BFFB1A43F085
:1001800001031847CC2C0000EC2C0000103A24BFCF
:1001900078C878C1FAD8520724BF30C830C144BFEC
:1001A00004680C607047000000230024002500262E
:1001B000103A28BF78C1FBD8520728BF30C148BFCA
:1001C0000B6070471FB59DE8030000F037F91FBDB5
:1001D00010B510BD00F0C0F91146FFF7F3FF01F0B4
:1001E00017FB00F0DEF903B4FFF7F2FF03BC00F0E9
:1001F0000FFA00000948804709480047FEE7FEE77C
:10020000FEE7FEE7FEE7FEE7FEE7FEE7FEE7FEE7C6
:1002100004480549054A064B70470000651200086E
:1002200051010008600100206007002060030020E9
:100230006003002070B5064600F0E4F8056806F19A
:100240000B0020F00704B4429CBF002070BD2B4679
:100250006A68BAB11068A04210D304F1080188425C
:100260003CBF5068586007D351681019416011684D
:10027000091B016058601460101D70BD1346526860
:10028000002AE7D12146284600F0C4F80028DED134
:1002900070BD70B50446051F00F0B4F80068002C6E
:1002A00014BF446870BD002C18BFAC423CBF204650
:1002B0006468F8D301680A18AA4218BF456003D1E0
:1002C0002A6805461144016028684119A1421CBFF3
:1002D0006C6070BD6168696021680844286070BD09
:1002E000032A40F2308010F0030C00F0158011F862
:1002F000013BBCF1020F624498BF11F801CB00F83A
:10030000013B38BF11F8013BA2F1040298BF00F88D
:1003100001CB38BF00F8013B11F0030300F0C480AB
:10032000083AC0F0088051F8043B083A51F804CB71
:10033000A0E80810F5E7121D5CBF51F8043B40F837
:10034000043BAFF30080D20724BF11F8013B11F842
:1003500001CB48BF11F8012B24BF00F8013B00F886
:1003600001CB48BF00F8012B70474FF00002042971
:10037000C0F0128010F0030C00F01B80CCF1040CD4
:10038000BCF1020F18BF00F8012BA8BF20F8022B08
:10039000A1EB0C0100F00DB85FEAC17C24BF00F8AE
:1003A000012B00F8012B48BF00F8012B70474FF0DC
:1003B000000200B5134694469646203922BFA0E8B5
:1003C0000C50A0E80C50B1F12001BFF4F7AF0907C1
:1003D00028BFA0E80C5048BF0CC05DF804EB8900B2
:1003E00028BF40F8042B08BF704748BF20F8022BF5
:1003F00011F0804F18BF00F8012B7047704770470D
:1004000070470000004870470401002070477047A3
:100410007047704738B504460A4600206946AFF376
:100420000080002808BF38BD02460099204600F031
:1004300071F8012038BD012000F086B8F8B5AFF39F
:100440000080054600200C46102000BF0646A81973
:10045000A0420DD9324669460020AFF30080070064
:1004600008BF00F071F80098A04218BF0546C419F3
:10047000FFF7C8FF05600746F01D20F0070046198A
:10048000284600F00AF8B44208BFF8BDA21B314666
:100490003868BDE8F84000F03DB800210160C0E9CF
:1004A000011070471020704710B5203AC0F00B8043
:1004B000B1E81850203AA0E81850B1E81850A0E868
:1004C0001850BFF4F5AF5FEA027C24BFB1E81850C2
:1004D000A0E8185044BF18C918C0BDE810405FEA32
:1004E000827C24BF51F8043B40F8043B08BF7047AE
:1004F000D20728BF31F8023B48BF11F8012B28BFB3
:1005000020F8023B48BF00F8012B704700487047B5
:10051000FC000020034640688C46002818BF884233
:100520003CBF03464068F8D318681844884207D097
:100530000CF1030020F00700001D411A521A014679
:10054000081D0A60FFF7A5BE10B500F039F8BDE838
:10055000104000F02FB870477546FFF7D7FFAE4642
:1005600005006946534620F00700854618B020B5BF
:10057000FFF74EFEBDE820404FF000064FF00007A9
:100580004FF000084FF0000B21F00701AC46ACE83B
:10059000C009ACE8C009ACE8C009ACE8C0098D46A8
:1005A000704710B50446AFF300802046BDE8104008
:1005B000FFF719BE002801D000F02AB870470000EC
:1005C00010B5012805D0002103A000F027F8012074
:1005D00010BD09A1F8E7000053494752544D454D5D
:1005E0003A204F7574206F662068656170206D65D4
:1005F0006D6F7279000000003A2048656170206DCF
:10060000656D6F727920636F7272757074656400C6
:1006100001491820ABBEFEE72600020070B5054672
:100620000C460A2000E06D1C00F011F835B1287866
:100630000028F8D102E0641C00F009F814B1207819
:100640000028F8D1BDE870400A20AFF3008008B55B
:1006500069468DF800000320ABBE08BD704700005E
:1006600010B50548006800F00F04034844602046B8
:10067000FFF7F4FF10BD00000000024070470000CB
:1006800010B505480068C0F3031420010249486012
:100690002046FFF7F3FF10BD000002407047000046
:1006A00010B505480068C0F30324200202494860E1
:1006B0002046FFF7F3FF10BD000002407047000026
:1006C00010B505480068C0F30334200302494860B0
:1006D0002046FFF7F3FF10BD000002407047000006
:1006E00010B505480068C0F303442004024948607F
:1006F0002046FFF7F3FF10BD0000024070470000E6
:1007000010B505480068C0F303542005024948604D
:100710002046FFF7F3FF10BD0000024070470000C5
:1007200010B505480068C0F303642006024948601C
:100730002046FFF7F3FF10BD0000024070470000A5
:1007400010B50548006800F00F040348001D046060
:100750002046FFF7F3FF10BD000402407047000081
:1007600010B506480068C0F3031420010349091DB1
:1007700008602046FFF7F2FF10BD000000040240B1
:100780007047000010B506480068C0F3032420023B
:100790000349091D08602046FFF7F2FF10BD000065
:1007A000000402407047000010B506480068C0F31E
:1007B000034420040349091D08602046FFF7F2FFA7
:1007C00010BD00000004024001461D48814204D1D2
:1007D0001C488069C0F3800070471B48814204D1E7
:1007E00018488069C0F3C000F6E71848814204D178
:1007F00014488069C0F30010EEE71548814204D127
:1008000010488069C0F34010E6E71248814204D1E5
:100810000C488069C0F38010DEE70F48814204D1A4
:1008200008488069C0F3C010D6E70C48814204D163
:1008300004488069C0F30020CEE70020CCE7000028
:100840000008014000100240000C0140001001406F
:100850000014014000180140001C0140002001402C
:100860002DE9F04102460025002600200023002447
:10087000002791F803C00CF00F0591F803C00CF0AD
:10088000100CBCF1000F03D091F802C04CEA050532
:1008900091F800C0BCF1000F31D0146800202BE0AB
:1008A0004FF0010C0CFA00F3B1F800C00CEA03069B
:1008B0009E4220D183004FF00F0C0CFA03F7BC438B
:1008C00005FA03FC4CEA040491F803C0BCF1280FBC
:1008D00006D14FF0010C0CFA00FCC2F814C00AE07B
:1008E00091F803C0BCF1480F05D14FF0010C0CFA90
:1008F00000FCC2F810C0401C0828D1D31460B1F825
:1009000000C0BCF1FF0F34DD546800202EE000F180
:10091000080C4FF0010808FA0CF3B1F800C00CEA1B
:1009200003069E4221D183004FF00F0C0CFA03F70F
:10093000BC4305FA03FC4CEA040491F803C0BCF183
:10094000280F05D100F1080C08FA0CF8C2F8148041
:1009500091F803C0BCF1480F07D100F1080C4FF02B
:10096000010808FA0CF8C2F81080401C0828CED301
:100970005460BDE8F0812DE9F04105460C4617466C
:1009800098460F2C02D90020BDE8F0812846FFF7D9
:100990001BFF18B90121284600F02AF8B8F1000F12
:1009A00010D1022F05D1E8680121A1408843E860F9
:1009B00008E0032F06D127F00107E8680121A140D4
:1009C0000843E860082C01D22E4601E0083C2E1DA9
:1009D0003068A2000F2191408843306048EA8700C8
:1009E000A10088403168084330600120CCE7000056
:1009F000002945D0454A904206D1454A926942F0C5
:100A00000402434B9A6180E0424A904206D1404A38
:100A1000926942F008023E4B9A6176E03E4A90426B
:100A200006D13B4A926942F01002394B9A616CE060
:100A30003A4A904206D1364A926942F02002344B3B
:100A40009A6162E0364A904206D1314A926942F098
:100A500040022F4B9A6158E0324A904206D12C4A0C
:100A6000926942F080022A4B9A614EE02E4A9042EF
:100A70004BD1274A926942F48072254B9A6144E037
:100A8000224A904206D1224A926922F00402204B67
:100A90009A613AE01F4A904206D11D4A926922F0BB
:100AA00008021B4B9A6130E01B4A904206D1184A5B
:100AB000926922F01002164B9A6126E0174A904282
:100AC00006D1134A926922F02002114B9A611CE070
:100AD000134A904206D10E4A926922F040020C4B12
:100AE0009A6112E00F4A904206D1094A926922F0B7
:100AF0008002074B9A6108E00B4A904205D1044AF4
:100B0000926922F48072024B9A617047000801409A
:100B100000100240000C0140001001400014014090
:100B200000180140001C0140002001400246002046
:100B300093680B400BB1012000E000207047416139
:100B4000704701617047000010B54FF480710D4887
:100B5000FFF7F5FF00F0CCF84FF400710948FFF7FC
:100B6000EEFF0A2000F062FD4FF480710548FFF7A8
:100B7000E8FF0A2000F05AFD4FF480710148FFF7AA
:100B8000DEFF10BD0018014008B50121402000F033
:100B900001FA4FF44070ADF8000003208DF8020018
:100BA00010208DF8030069460648FFF759FE4FF400
:100BB00080710448FFF7C5FF4FF400710148FFF74B
:100BC000C0FF08BD0018014010B54FF480710D48FA
:100BD000FFF7B5FF00F08CF84FF400710948FFF7FC
:100BE000B0FF0A2000F022FD4FF480710548FFF7A6
:100BF000A8FF0A2000F01AFD4FF480710148FFF7AA
:100C00009EFF10BD0018014070B505460026002467
:100C100000F05EF800BF1BE04FF480711148FFF751
:100C20008EFF0A2000F002FD4FF480710D48FFF79F
:100C300088FF6006040E4FF400710A48FFF776FF44
:100C400008B1601CC4B20A2000F0F0FC701CC6B2EF
:100C5000082EE1DB15B9FFF7B7FF01E0FFF774FFDE
:100C6000204670BD001801402DE9F04780460F4630
:100C700014461D464FF00009002600F07FF840465C
:100C800000F048F800F0BAF8384600F043F800F0F9
:100C9000B5F800F073F808F10101C8B200F03AF8B5
:100CA00000F0ACF800BF05E00120FFF7ADFFA05554
:100CB000701CC6B2681EB042F6DC0020FFF7A4FF2D
:100CC000611901F8010C00F079F8BDE8F087000027
:100CD00008B54FF40070ADF8000048208DF803000F
:100CE00069460248FFF7BCFD08BD0000001801403E
:100CF00008B54FF40070ADF8000003208DF8020035
:100D000010208DF8030069460148FFF7A9FD08BDD2
:100D10000018014070B504460025FFF7E9FF4FF4C5
:100D200080711548FFF70BFF00BF22E004F0800040
:100D3000002805DD4FF400710F48FFF702FF04E0C3
:100D40004FF400710C48FFF7FAFE6006040E4FF4F2
:100D500080710948FFF7F5FE0A2000F067FC4FF4A8
:100D600080710548FFF7EBFE0A2000F05FFC681C6D
:100D7000C5B2082DDADB70BD0018014010B5FFF7D1
:100D8000B7FF4FF400710C48FFF7DBFE4FF48071A2
:100D90000948FFF7D6FE0A2000F048FC4FF4007126
:100DA0000548FFF7CCFE0A2000F040FC4FF48071AC
:100DB0000148FFF7C4FE10BD0018014010B5FFF751
:100DC00097FF4FF480710C48FFF7B9FE4FF40071A4
:100DD0000948FFF7B4FE4FF480710748FFF7B1FEF2
:100DE0000A2000F023FC4FF400710348FFF7A9FE2E
:100DF0000A2000F01BFC10BD0018014010B50024B3
:100E00004FF480710F48FFF79CFE0A2000F00EFCA3
:100E1000FFF75EFF07E0601CC4B2FA2C03DDFFF7AA
:100E2000CDFF012010BD4FF400710648FFF77EFE94
:100E30000028F0D14FF480710248FFF780FE0020B7
:100E4000F0E70000001801402DE9F04180460D4612
:100E500016461F460024FFF791FF4046FFF75AFF52
:100E6000FFF7CCFF2846FFF755FFFFF7C7FF00BF8E
:100E700006E0305DFFF74EFFFFF7C0FF601CC4B215
:100E8000BC42F6DBFFF79AFFBDE8F08108B5002110
:100E90004FF0006000F056F84FF4A06000F048F802
:100EA00025208DF8000003208DF8010000208DF82A
:100EB000020001208DF80300684600F001F808BD2B
:100EC00070B5002100230F22C47804B3154C2468A8
:100ED00004F4E064C4F5E064210AC1F10403CA40EB
:100EE000447804FA03F184781440214309010E4C3C
:100EF0000678A155047804F01F050124AC4005785C
:100F00006D11AD0005F1E025C5F8004109E0047858
:100F100004F01F050124AC40044D0678761145F815
:100F2000264070BD0CED00E000E400E080E100E050
:100F300002490143024A1160704700000000FA05AF
:100F40000CED00E0024A0A400243024B1A6070476F
:100F500080FFFF1F08ED00E070B504460D46164601
:100F600033462A4621468020FFF77EFE70BD13B52A
:100F70000446012301AA21468020FFF765FF1CBD1E
:100F800013B50446022301AA21468020FFF75CFF27
:100F90001CBD000029B1064A92690243044B9A61C4
:100FA00004E0034A92698243014B9A617047000052
:100FB000001002402DE9F04100210022002500230D
:100FC0000026002400278C46DFF86081D8F80480D2
:100FD00008F00C0121B1042907D0082959D109E0F2
:100FE000DFF84C81C0F8008058E0DFF84881C0F895
:100FF000008053E0DFF83481D8F8048008F47012E0
:10100000DFF82881D8F8048008F48035920C0D2A86
:1010100001D0921C00E0062235B9DFF81C8102FBEA
:1010200008F8C0F8008033E0DFF80081D8F82C80A1
:1010300008F48036DFF8F480D8F82C8008F00F0828
:1010400008F1010446B9DFF8EC80B8FBF4F808FBBE
:1010500002F8C0F800801BE0DFF8D080D8F82C80C0
:10106000C8F3031808F10107DFF8C080D8F82C8016
:10107000C8F3032808F1020CDFF8B880B8FBF7F8D2
:1010800008FB0CF8B8FBF4F808FB02F8C0F8008085
:1010900004E0DFF89C80C0F8008000BF00BFDFF8EC
:1010A0008C80D8F8048008F0F0010909DFF88C8002
:1010B00018F80130D0F8008028FA03F8C0F804804E
:1010C000DFF86880D8F8048008F4E061090ADFF8E6
:1010D0006C8018F80130D0F8048028FA03F8C0F8C2
:1010E0000880DFF84880D8F8048008F46051C90A05
:1010F000DFF8488018F80130D0F8048028FA03F8A7
:10110000C0F80C80DFF82480D8F8048008F440414F
:10111000890BDFF82C8018F80130D0F80C80B8FB70
:10112000F3F8C0F81080BDE8F08100000010024024
:1011300000127A0040787D0100093D00C8000020BF
:10114000D800002010B500F001F810BD0CB500204B
:10115000019000903F48006840F480303D490860AD
:1011600000BF3C48006800F4003000900198401C2B
:101170000190009818B90198B0F5A06FF1D13548E9
:10118000006800F4003010B10120009001E0002060
:101190000090009801285CD12F48006840F01000B2
:1011A0002D4908600846006820F0030008600846E2
:1011B000006840F002000860264840682549486001
:1011C0000846406848600846406840F480604860CF
:1011D0000846C06A214908401E49C8620846C06ADC
:1011E0001F4908431B49C8620846006840F08060F8
:1011F000086000BF1748006800F000600028F9D0C0
:101200001448406820F47C10124948600846406841
:1012100040F4E81048600846006840F080700860BC
:1012200000BF0C48006800F000700028F9D00948A1
:10123000406820F00300074948600846406840F0D5
:101240000200486000BF0348406800F00C00082816
:10125000F9D10CBD001002400020024000F0FEFF5A
:101260004406010010B51648006840F0010014491A
:10127000086008464068134908401149486008461C
:101280000068114908400E4908600846006820F4CB
:10129000802008600846406820F4FE004860084648
:1012A000006820F0A05008604FF47F0088600020A4
:1012B000C862FFF747FF4FF000600449086010BDA7
:1012C000001002400000FFF0FFFFF6FE08ED00E016
:1012D00010B500240121084800F013F858B101218D
:1012E000054800F00BF800BF03E0204600F002FEC6
:1012F000641C062CF9DB10BD00040040CA430282C6
:10130000704730B50246002000230024158A05EA04
:101310000103958905EA010413B10CB1012000E035
:10132000002030BD10B540F225510E4800F086F87F
:1013300058B10C48001D0088C4B2204600F048FB9C
:1013400040F22551074800F00FF840F22771054898
:1013500000F074F820B140F22771024800F004F860
:1013600010BD00000038014010B50022002340F6F7
:101370006A14A14200D100BF0A1201249440A3B212
:10138000DC43048010BD21B1828942F40052828185
:1013900004E082894DF6FF731A4082817047000095
:1013A00000B585B001218803FFF7F4FD0121042079
:1013B000FFF7F0FD4FF40070ADF8100018208DF825
:1013C000130003208DF8120004A91A48FFF748FA09
:1013D0004FF48060ADF8100048208DF81300032012
:1013E0008DF8120004A91348FFF73AFA4FF4E130E0
:1013F00000900020ADF80400ADF80600ADF808003C
:10140000ADF80C000C20ADF80A0069460A4800F05F
:1014100065F8012240F22551074800F039F8012112
:101420000548FFF7B0FF40F226610348FFF79CFF35
:1014300005B000BD000801400038014070B502460B
:10144000002400230025002040F66A16B14200D196
:1014500000BFC1F3421501F01F03012606FA03F392
:10146000012D02D19689334006E0022D02D1168A61
:10147000334001E0968A33400C12012606FA04F448
:101480001688344013B10CB1012000E0002070BD7B
:10149000F0B50346002400260025002040F66A1718
:1014A000B94200D100BF1846C1F3421401F01F0633
:1014B000012707FA06F5012C01D10C3004E0022CBB
:1014C00001D1103000E014301AB107682F430760D3
:1014D00002E00768AF430760F0BD00002DE9F04768
:1014E00086B005460E460024A24600BFA14600274E
:1014F000B08900B100BF2F462C8A4CF6FF70044023
:10150000F08804432C82AC894EF6F3100440B08876
:1015100031890843718908430443AC81AC8A4FF692
:10152000FF400440B0890443AC8201A8FFF742FDAC
:101530001F48874202D1DDF810A001E0DDF80CA0C1
:10154000A88900F4004040B10AEBCA0000EB0A1081
:1015500031684900B0FBF1F807E00AEBCA0000EB84
:101560000A1031688900B0FBF1F86420B8FBF0F094
:1015700004012009642101FB1089A88900F40040BE
:1015800040B1322000EBC900B0FBF1F000F00700E1
:10159000044308E0322000EB09106421B0FBF1F0B5
:1015A00000F00F0004432C8106B0BDE8F087000076
:1015B000003801402DE9FC5F82464FF4FA7BBAF116
:1015C000B40F01DDB42000E050468246BAF1000FAE
:1015D00001DA002000E050468246504600F0A9FFA4
:1015E0000B4A0C4BCDE9000100F0F6FF06460F4612
:1015F000584600F09EFF804632463B4600F030FDE4
:10160000044600F039FF83465846BDE8FC9F0000C1
:101610008EE3388EE338264010B503464FF47A70D7
:1016200003FB00F4204600F001F810BD002100BFCC
:1016300048E000BF00BF00BF00BF00BF00BF00BF49
:1016400000BF00BF00BF00BF00BF00BF00BF00BFA2
:1016500000BF00BF00BF00BF00BF00BF00BF00BF92
:1016600000BF00BF00BF00BF00BF00BF00BF00BF82
:1016700000BF00BF00BF00BF00BF00BF00BF00BF72
:1016800000BF00BF00BF00BF00BF00BF00BF00BF62
:1016900000BF00BF00BF00BF00BF00BF00BF00BF52
:1016A00000BF00BF00BF00BF00BF00BF00BF00BF42
:1016B00000BF00BF00BF00BF00BF00BF00BF00BF32
:1016C00000BF491C8142B4D3704700002DE9F041AE
:1016D000C1F30A52A2F2FF362F4A304B0D460446A0
:1016E000142E2FDA002E12DA00F0BAFC0022134674
:1016F00001F070F84CD2002DA4BF0024254647DA33
:1017000025F00040204318BF254D41D018E0DFF8F8
:1017100094C02CFA06F705EA070C5CEA040C08BF33
:10172000BDE8F08100F09CFC0022134601F052F865
:101730002ED2002D03DA4FF48010F0400544BD4353
:10174000002425E0332EC8BFBDE8F081A6F1140CBB
:101750004FF0FF3727FA0CF73C4208BFBDE8F08195
:1017600001F06EF80022134601F034F810D2002D7B
:101770000DDA142E08BF6D1C09D0C6F1340001210A
:1017800001FA00F02044A04238BF6D1C0446BC435F
:1017900029462046BDE8F0819C7500883CE4377EF0
:1017A0000000F0BFFFFF0F000146064A505C064AEA
:1017B0009268C24002F001020AB100207047012085
:1017C000FCE70000000000200010014010B50121DE
:1017D0000D48FFF70DF90223032206210B48FFF7FE
:1017E000CAF80223032207210848FFF7C4F802239E
:1017F000032208210548FFF7BEF80223032209212E
:101800000248FFF7B8F810BD001001400014014075
:1018100000BFFFF7DBFF00F05DFBFFF7C1FDFFF747
:1018200035FB00F043F9134800F0F4F920E0022002
:10183000FFF7BAFF60B15A21002000F04FFB5A2198
:10184000012000F04BFB5A21022000F047FB0FE083
:101850000320FFF7A9FF58B12D21002000F03EFB27
:101860002D21012000F03AFB2D21022000F036FB53
:10187000DDE70000991E00082DE9F04792B006460A
:101880000F4690464FF00009002011900025344685
:1018900000BF93E0785D11904C480078072819D27A
:1018A000DFE800F004192129485B710020799DF8D8
:1018B000441088420CD19DF84400444948700020EF
:1018C000A168C86041498860C8600120087001E0D3
:1018D0004FF0FF3970E09DF844103C4881700220C1
:1018E0003A49087068E09DF844103848C1700320F8
:1018F0003649087060E09DF8441034480171417821
:10190000C0780144314800790844C1B22F4880783A
:10191000814209D12D48C178007901EB00202B4983
:1019200088600420087004E00020284908704FF007
:10193000FF3941E0012211A9A06800F0BFF8234857
:10194000C068401C2149C86008468068C968884250
:1019500002D105201D4908702EE04FF0000AFF2239
:101960000021A06800F0C8F882469DF84400824536
:1019700003D106201549087004E0002013490870BF
:101980004FF0FF3918E060799DF8441088420DD17E
:101990000E48C268A0680068411C01A8FEF7A0FCC0
:1019A00000200A49C96801AA505401E04FF0FF39EC
:1019B00000200649087000BF00BF6D1C4545FFF6BA
:1019C00069AF484612B0BDE8F0870000DC00002097
:1019D00001B5012269460248006800F003F808BD1D
:1019E000C40000202DE9F84306460F4690464FF00C
:1019F0000009002000900025344600BF4EE0785DCD
:101A000000902948007830B101280FD0022819D061
:101A1000042841D11FE09DF80000FF2803D10120D8
:101A20002149087001E04FF0FF3935E09DF80000D2
:101A3000552803D102201C49087002E000201A49F1
:101A4000087029E00420184908709DF8000088609B
:101A50000020C86020E001226946A06800F02EF84E
:101A60001148C068401C1049C86008468068C968B1
:101A7000884210D1206928B10B4B197BA3681868E4
:101A800022699047002008498860C8600870A168F2
:101A90000881A168C86000BF00BF6D1C4545AEDB72
:101AA0004846BDE8F8830000EC00002010B502496C
:101AB000032000F055F810BDC4000020F0B5034627
:101AC00000240D4613B94FF48170F0BD00240FE0DF
:101AD0005868401EDE68864202DB40F20910F4E7D7
:101AE00015F8016BDF68781CD8601868C655641C4F
:101AF0009442EDDB0020E8E730B503460C4615467E
:101B000000220BB9002030BDA1B205E01868405C8E
:101B10001044C2B2481C81B2D8688842F6DC2A4020
:101B20001046F0E770B505460C46002D02DC4FF478
:101B3000817070BD1420FEF77DFB206014212068A9
:101B4000FEF735FC2846FEF775FB21680860206823
:101B50004560216808682946FEF707FC0020E8E791
:101B6000F8B506460D46002000900024012E1FD136
:101B70002420FEF75FFB044624212046FEF717FCD5
:101B800014B900202860F8BD69464FF48070FFF753
:101B9000C9FF0098A060204600F02CF801202060CA
:101BA000F3202071F42060711148E0602C601DE08A
:101BB000032E1BD12420FEF73DFB044624212046A2
:101BC000FEF7F5FB14B900202860DCE769464FF406
:101BD0008070FFF7A7FF0098A060204600F00AF889
:101BE000032020600020207160712C6000BFCAE7D4
:101BF0007918000800B97047002101600171417136
:101C00000161816821B10021826811818268D160FF
:101C100000BFF0E70149096808617047C40000206F
:101C200030B5144C04EB40142168124C04EB401402
:101C3000002362681BB1012494400C6104E002F1AE
:101C400010040125A5400D6100BF0A4C04EB4014AF
:101C5000A168084C04EB40140123E2681BB1012485
:101C600094400C6104E002F110040125A5400D61CF
:101C700000BF30BD0400002030B5144C04EB40140C
:101C80002168124C04EB4014012362681BB101244B
:101C900094400C6104E002F110040125A5400D619F
:101CA00000BF0A4C04EB4014A168084C04EB40143C
:101CB0000023E2681BB1012494400C6104E002F1AE
:101CC00010040125A5400D6100BF30BD04000020B7
:101CD00030B5144C04EB40142168124C04EB401452
:101CE000002362681BB1012494400C6104E002F1FE
:101CF00010040125A5400D6100BF0A4C04EB4014FF
:101D0000A168084C04EB40140023E2681BB10124D5
:101D100094400C6104E002F110040125A5400D611E
:101D200000BF30BD0400002010B5FEF72DFF0248B3
:101D300000F004F810BD0000000048422DE9FF5FEC
:101D4000824600200190504600F070FE0646334A5D
:101D5000334B00F041FC044600F050F98246314814
:101D600000904FF08B41009800F0EEFE009051463D
:101D7000009800F0E9FE00904FF07E51009800F0CE
:101D8000F1FF0090009800F051FE06460022264B1D
:101D900000F066F98046FFF799FC044600F09CFBD2
:101DA000C0B20390012202A90020FFF7D5F89DF8E8
:101DB000080000F07F0002909DF8080040F010013C
:101DC0000020FFF7D4F89DF8080000F0BF0040F0B5
:101DD00020010020FFF7CBF89DF8080000F0BF00BD
:101DE00040F0200B9DF80C10FE20FFF7C0F80020FB
:101DF0000390012203A9FE20FFF7AEF8012203A9F8
:101E00000020FFF7A9F80BF0EF010020FFF7AFF873
:101E10000520FFF701FCBDE8FF9F000048E17A14B0
:101E2000AE47ED3F20BCBE4B0000E03F2DE9FF5F19
:101E300082468B4600200390584600F07AFB064607
:101E40000022114B00F0C0F90022104BCDE9000137
:101E500000F0C2FB04460E4A0E4B00F0BDFB80466C
:101E600000F03AFB80B202904FEA8A01891DC8B2A5
:101E70000399FFF785F84FEA8A010831C8B2029941
:101E8000FFF77EF8BDE8FF9F0088D3400000B04018
:101E90007E2AB8697D1BF03F2DE9F04106460D46CC
:101EA00000240027A046284605EBD071C1F3470562
:101EB00000BF0BE016F81470012000EB440016F888
:101EC00000804146384600F009F8641CAC42F1DB62
:101ED000BDE8F08110B5FFF727FF10BD70B50546CE
:101EE0000C462046FFF766FB064631462846FFF7BC
:101EF0009DFF70BD10B504463F4800EB44100069DB
:101F000010F1050F12DB3C4800EB44100069052876
:101F10000CDC2046FFF7DCFE374800EB44108069FC
:101F2000401C354901EB4411886110BD324800EB7B
:101F300044100069002829DB2F4800EB4410806919
:101F4000642190FBF1F201FB12002B4901EB4411DB
:101F5000096988420DDA2046FFF78EFE01202649E6
:101F600001EB441108750020234901EB4411487529
:101F700036E02046FFF7ACFE00201F4901EB44117C
:101F800008751D4901EB4411487529E01A4800EB1A
:101F900044108069642190FBF1F201FB12001649A4
:101FA00001EB44110969494288420DDA2046FFF7E6
:101FB00037FE0020104901EB4411087501200E493D
:101FC00001EB441148750BE02046FFF781FE00202D
:101FD000094901EB44110875074901EB44114875A3
:101FE000054800EB44108069401C034901EB441193
:101FF000886100BF99E700000400002021F0004242
:10200000A2F16052B2F5801F01F0004328BFD2F167
:102010007F6C0BD95FEA001C43EAC20242EB5070AE
:1020200018BF704728BF20F001007047B2F5801F2D
:10203000BCBF184670474FEA410C1CF5001F02D286
:10204000084600F089BE70B500F070FB0000008902
:10205000FFF7F6BF4FF00040A0F58000704700008A
:1020600010B591EA030F48BF83F0004300F1FC83F1
:10207000841A71EB030C05D2121943EB0C03001BFD
:1020800061EB0C01DFF824E14FEA1154A4EB135C7F
:102090001EEA430F18BF9EEA445F73D023EA0E0383
:1020A000DCF1200E21EA045143F4801332D322FAEA
:1020B0000CFE10EB0E0023FA0CFE41EB0E01CCF1EE
:1020C000200E03FA0EFE10EB0E0051F10001B1F5E7
:1020D000801FCCF1200E32D201EB045112FA0EF225
:1020E000BDE8104058BF7047401C38BF5FEA42024D
:1020F00018BF7047002814BF20F0010041F1000113
:102100004FEA410313F5001F38BF7047A1F1C041EA
:1021100000F05ABB012A43EB0302ACF1200CDCF1C6
:102120001F0E32BF4FF0000E23FA0CF310EB03002A
:1021300041EB0451B4EB115FD0D0A1EB045101F598
:10214000801149085FEA300001EB04510ED350F1D1
:10215000000038BF12FA0EFE08D1BDE81040C9E7F2
:10216000401C38BF5FEA4202CAD1C3E7BDE8104055
:102170004FEA410313F5001F38BF7047A1F1C0417A
:1021800000F022BB9EEA445F08D011EA5E0FBDE872
:10219000104004BF01F0004100207047BDE810402E
:1021A00070B500F0C3FA00BF64FBBE3E0000E0FF64
:1021B000491058BFC1F140415B1058BFC3F14043C3
:1021C0008B42EFF3008070472DE9C04130B4DFF857
:1021D000A0C23CEA111418BF3CEA131400F0EC80D2
:1021E00081EA03051CEA111444EAD57418BF1CEAFD
:1021F000131500F0C780A4EB05044FF0004545EA35
:10220000C12145EAC32341EA505143EA525304F144
:102210007F74994204F500344FEAC0204FEAC2228D
:1022200008BF904200F09C804FEA13650FF2401601
:10223000765D4FEA134506FB05F7C7F1807706FB8D
:1022400007F74FEAD737A7FB03687642C8F580380F
:10225000A7FB06CE38BFA8F1010807FB08E64FF040
:10226000000EA6FB028CE6FB03CEDCF1000CCEF1E7
:10227000004E38BFAEF1010EA6FB0C584FF0000720
:102280004FF00005E6FB0E87A1FB08C6A0FB07CEBA
:1022900016EB0E0645F10005E1FB076515F1E04E72
:1022A0007EBFA4F580345FEA46066D4116F18007D3
:1022B00045F100054FEA17274FEA066647EA05672A
:1022C000A6F1DE46B6F1805F4FEA15251FD93846E4
:1022D00024F0010C05EBC471BCF1FE6F01EB0C1195
:1022E00002D8F0BCBDE8008124425CBF01F5801E2D
:1022F0009EEAC47F02D4F0BCBDE80081244238D4F9
:10230000F0BCA1F1C041BDE8004100F05DBA4FEA68
:10231000D22242EA43524FEAD323A7FB02864FEA76
:10232000D02040EA415007FB03661EEA0E0F4FEA39
:10233000D12105FB026658BFA6EB0056B6EB00564E
:102340004FEA520E4EEAC37E18EB0E0E56EB530EBA
:10235000BDD518EB02085E417F1C55F10005B6E7BC
:102360004FF480154FF000074FF000064FF00008C3
:10237000ADE7F0BC4FF0000001F1C04101F00041B9
:10238000BDE8008111EA0C1F0CEA131500D00CE027
:1023900013EA0C1F00F025804FF00000F0BC81EA2A
:1023A000030101F00041BDE80081F0BCBDE800413F
:1023B00081EA030100F008BAF0BCBDE8004170B545
:1023C00000F0B4F9097EFC3E00F007B881EA030191
:1023D0004FF0000001F00041704781EA030100F076
:1023E000F3B9F0BCBDE800414FF00000214970474F
:1023F000FFFDFBF9F7F5F4F2F0EEEDEBE9E8E6E4CA
:10240000E3E1E0DEDDDBDAD8D7D5D4D3D1D0CFCD50
:10241000CCCBCAC8C7C6C5C4C2C1C0BFBEBDBCBB89
:10242000BAB9B8B7B6B5B4B3B2B1B0AFAEADACAB84
:10243000AAA9A8A8A7A6A5A4A3A3A2A1A09F9F9E5E
:102440009D9C9C9B9A999998979796959594939310
:10245000929191908F8F8E8E8D8C8C8B8B8A8989A7
:10246000888887878685858484838382828181802A
:102470000000FF070000F87F4FEA41034FEA535383
:10248000A3F58063D3F11E03C8BFD3F1210C0CDD8B
:102490004FF0004242EAC12242EA505232FA03FCB3
:1024A0008CEAE17CACEBE1707047102BC4BF0020DC
:1024B000704703F5787CBCF1FF3F04D06FF0004219
:1024C00082EA2100704770B500F030F9499224800B
:1024D00000207047F2E700004FEA1153A3F5806334
:1024E000D3F11E03A8BFD3F1200C08DB4FF000424C
:1024F00042EAC12252EA505232FA03F070470942CE
:102500000BD4102BC4BF0020704703F5787CBCF1BE
:10251000FF3F05D04FF0FF3070474FF0000070478D
:1025200070B500F003F900BF499224800020704785
:10253000F0E710F0004248BF4042B0FA80F310FAD2
:1025400003F10AD0C3F11D0303F580634FEA415044
:1025500002EB035202EBD12170474FF000007047AD
:1025600051EA030C17D41CF5801F58BFBCF5801F1F
:1025700000F10680994218BF704708BF904270472B
:1025800007D711F5801F58BF13F5801F19D4994242
:102590007047894270471CF5801F08D5BCF5801F25
:1025A000F7D58B4218BF704708BF824270474FF47F
:1025B000001C1CEB410F38BF1CEB430F01D28B42B8
:1025C000704770B500F0B2F8922449004FF0005106
:1025D0004FF08053FFF7ECBDDFF848C170B51CEA3F
:1025E000111E1EBF1CEA13159EEA0C0F95EA0C0F74
:1025F00000F06F8081EA030423EA4C134EEAD47E94
:1026000021EA4C1141F4801143F48013AE44A1FB44
:10261000024CA0FB0365AEF17F7E361955EB0C052D
:10262000A1FB034C4CF10003A0FB021C16EB0C06B3
:10263000654153F10003094218BF46F0010613F447
:10264000007F0BD14FEA03314FEA0530340341EAF2
:10265000155140EA16506FF003020AE04FEAC32119
:102660004FEAC520F40241EA555140EA56506FF056
:10267000020202EB2E4201EB025585EACE710AD02E
:102680005FEA440C18BF24F0004450F1000041F10F
:10269000000120EAD47040F2FE7C624500D270BD99
:1026A000A84214BF4FF080444FF04044002E08BFB2
:1026B0000024BEF1806FA8BFA1F1C041BDE8704009
:1026C00080F282804FF0000001F1C04101F0004132
:1026D00070479EEA0C0F0CEA131518BF95EA0C0F11
:1026E00006D04FF0000081EA030E0EF0004170BDED
:1026F00000F01CF88900013E00F007B800F009B8AE
:102700004FEA430C5FEA5C5C08D081EA030100F009
:102710005BB84FEA410C5FEA5C5CF6D14FF0000019
:10272000014970470000FF070000F87F0EF1020E1C
:102730002EF0030E5EF8046B364205D4012A43EBFB
:10274000030515F5001F12D8012841EB010C1CF5FB
:10275000001F0CD80ED14FEAD17C15F5001F0CEBF1
:102760004C0C0CF1020C08BF4CEBD37C04E04FF096
:10277000080C01E04FEAD37C0CEB4C0526FA05F679
:1027800006F00706B6F1040C06D20EEB860CBDE887
:1027900070404CF0010C6047DFE80CF0090B0202BE
:1027A0004FF000414FF00000A1F5002170BD194627
:1027B0001046012851EB010418BFD4F5001484BF62
:1027C000002001F0004170BD0808A0F500114FEA9B
:1027D0003101704753EA010C17D41CF5801F58BF14
:1027E000BCF5801F00F106808B4218BF704708BF00
:1027F0008242704707D713F5801F58BF11F5801F1D
:1028000019D48B4270479B4270471CF5801F08D536
:10281000BCF5801FF7D5994218BF704708BF90429A
:1028200070474FF4001C1CEB430F38BF1CEB410FEB
:1028300001D2994270470FB40CBC03BCFFF7C1BE74
:1028400091EA030F10B581F000413FF511AC83F020
:10285000004300F009B8000010B591EA030F48BF2B
:1028600083F000433FF504AC841A71EB030C07D2EC
:1028700012198CF0004C43EB0C03001B61EB0C01B4
:10288000DFF8A4E14FEA1154A4EB135C1EEA430FF6
:1028900018BF9EEA445F00F0B08023EA6E03524204
:1028A00021EA0451C3EB6E0338BF5B1EDCF1200E3E
:1028B00025D322FA0CFE10EB0E0043FA0CFE41EB7E
:1028C0000E01CCF1200E03FA0EFE10EB0E0051F1BA
:1028D0000001CCF1200E29D412FA0EF201EB0451C2
:1028E000BDE8104058BF7047401C1CBFB2F1004FFC
:1028F000704700280CBF491C20F00100704712EB04
:10290000020E43EB030218BF4FF0010E4EEA4202E3
:10291000ACF1200CDCF11E0E54D943FA0CFE10EB86
:102920000E0051F1FF31CCF11E0ED5D50EF1010E86
:1029300012FA0EFE404141EB010101EB445C5FEAFB
:102940005C5C10D910EBDE7001EB045138BFBEF1B6
:10295000004FBDE8104018BF704700280CBF491C4D
:1029600020F00100704730D24FEAD42C11F500114D
:1029700024F400641BD0B1FA81F20B3AA41AA41E0D
:10298000D2F12003914030FA03F31943904001EB58
:10299000CC71002C01EB0451BDE81040A8BF70477A
:1029A00001F1C0414FF0000001F000417047B0FA62
:1029B00080F310FA03F100D110BDE41A173C48056A
:1029C000C90AE4E701EB045110BD491001EB0451C1
:1029D000BDE810404FEA300002E04FF000017047C0
:1029E0004A0008BF0042F8D0B2F5001F28BF704768
:1029F00001F000414FF0000070479EEA445F07D0AD
:102A000011EA5E0FBDE8104004BF002100207047AE
:102A1000BDE8104070B5FFF789FE00BF40DFF63E0D
:102A200083F00041104670470000E0FF43004FEA8A
:102A3000D30C4FEA3C0C43401FBF40070CF16051E0
:102A400013F0FE4F70471CF0006F03D100200CF014
:102A5000004170470CF0004343EA507010B540EA63
:102A6000CC0000F033F900BF000000924FEA0001F3
:102A7000FFF7AABE4FF000414FF00000A1F5002182
:102A80007047000090EA010F48BF81F0004100F15B
:102A90007081421A3CBF801A89184FEAD0524FF019
:102AA0007F4C1CEA410FA2EBD15318BF9CEA026F86
:102AB00000F03B804FF0004C4CEA00204CEA012132
:102AC00021FA03FC10EB0C0C1ED202F1FF325FEA7C
:102AD0001C2040EBC25038BF70471CF07F0F4FEAFC
:102AE000400C18BFBCF17F4F38BF7047C3F12003C3
:102AF000994008BF20F00100BCF17F4F38BF7047FC
:102B0000A0F1C04000F028B94FEA3C00000A40EBB9
:102B1000C25028BF1CF0FF0F4FEA400CE6D018BF90
:102B2000BCF17F4F38BF7047EAE79CEA026F05D0DF
:102B300010EA5C0F08BF00F00040704710B500F0CD
:102B4000C5F800BF64FBBE3E4FF47F0C1CEAD012F8
:102B50001EBF1CEAD11392EA0C0F93EA0C0F00F08F
:102B6000858090EA010F48BF42F4807240F4000C67
:102B700041F400002CF07F4120F07F4000B58142FD
:102B8000A2EB03020FF2081CACEB504EC0F10000A8
:102B90009EF800E04FEA4E0E00FB0EFC38BF4900E5
:102BA0004FEA2C1C02F5FA020CFB0EF34FEACE1E84
:102BB0004FEA112C4FEAC1210EEB635E42EB224239
:102BC0000EFB0CFC4FEA1C5300FB03114FEA112CC7
:102BD0004FEA01310EFB0CFC4FEADC4C00FB0C1100
:102BE000C14228BF09184CEB03335DF804EB10EB2E
:102BF000410143EBC250B2F57C0F38BF704729D575
:102C000012F0F00F1CBF00F1C04000F00040704710
:102C1000008182838485868788898B8C8D8E8F91B5
:102C20009293959697999A9C9D9FA0A2A3A5A7A8D9
:102C3000AAACAEB0B2B3B5B7B9BCBEC0C2C5C7C905
:102C4000CCCED1D4D7D9DCDFE2E6E9ECF0F3F7FA69
:102C5000FE0000004FEA400C0CF1807CBCF17E4F7E
:102C600028BF7047B0F1C04000F076B890EA010F7D
:102C70000CEAD11348BF42F48072624538BF634505
:102C800007D213F47F0F16D080EA010000F0004055
:102C9000704710B500F01AF8097EFC3E00F005B848
:102CA00080EA010000F00040704780EA010000F077
:102CB000004000F051B812F47F0F04BF0248704783
:102CC00080EA010000F048B80000C07F0EF1020E5B
:102CD0002EF0030E5EF8044B244204D44FEA410266
:102CE000B2F17F4F11D84FEA4003B3F17F4F0CD8B8
:102CF0000ED14FEAD07CB2F17F4F0CEB4C0C0CF1B3
:102D0000020C08BF4CEBD17C04E04FF0080C01E052
:102D10004FEAD17C0CEB4C0324FA03F404F00704D3
:102D2000B4F1040C06D20EEB840CBDE810404CF05C
:102D3000010C6047DFE80CF0070802024FF000408A
:102D4000A0F5800010BD0846420018BFD2F1807285
:102D500088BF00F0004010BDFF2141EAD050C005FF
:102D60007047000090EA010F48BF81F000413FF535
:102D700090AE421A04D882F00042A0EB0200114447
:102D80004FEAD0524FF07F4C1CEA410FA2EBD153D7
:102D900018BF9CEA026F4AD04FF0004C4CEA00206A
:102DA0004CEA012121FA03FCB0EB0C0C0FD412F019
:102DB000FE0F36D05FEA4C001DD5001240EBC2502A
:102DC00038BF70471CF03F0F18BF70470BE0A2F1EF
:102DD00001025FEA1C2040EBC25038BF70471CF074
:102DE0007F0F18BF7047C3F12003994014BF401EE6
:102DF00020F00100704780084FEA122308BF704797
:102E0000B0FA80FCA2EB0C02CCF1280C60FA0CF0BA
:102E100093EA122F04BF00EBC25070474FEAC37011
:102E20007047130A5FEADC1008BF7047F6E79CEAB8
:102E3000026F04D010EA5C0F08BF0020704710B585
:102E4000FFF744FF40DFF63E81F00040704700008E
:102E5000702E000800000020DC0000008C0100083B
:102E60004C2F0008DC00002084060000A8010008A8
:102E7000060708090008014004000000000801409E
:102E8000050000000000000000000000000000003D
:102E9000000000000008014006000000000801409A
:102EA000070000000000000000000000000000001B
:102EB000000000000010014004000000001001406C
:102EC00005000000000000000000000000000000FD
:102ED00000000000000C014000000000000C014058
:102EE00001000000000000000000000000000000E1
:102EF00000000000001401400E000000001401401A
:102F00000F000000000000000000000000000000B2
:102F100000000000001801400800000000180140F7
:102F20000900000000000000000000000000000098
:102F30000000000000000000000000000102030487
:0C2F400001020304060708090204060849
:04000005080001519D
:00000001FF
